:020000040800F2
:10000000900800209501000829190008D70D000864
:1000100000000000000000000000000000000000E0
:100020000000000000000000000000008F1A00081F
:1000300000000000000000002B190008FD1A000855
:10004000A701000800000000A7010008A7010008A0
:10005000A7010008A7010008A7010008A7010008E0
:1000600000000000A7010008A7010008A701000880
:10007000A7010008A7010008A70100080000000070
:10008000E91C00080000000000000000E51B00085B
:1000900000000000FD1B0008511C0008A70100081B
:1000A00000000000A701000800000000191E000861
:1000B00000000000DDCCBBAA00F002F800F03EF822
:1000C0000CA030C8083824182D18A246671EAB466D
:1000D00054465D46AC4201D100F030F87E460F3EFA
:1000E0000FCCB6460126334200D0FB1AA246AB46DF
:1000F0003343184788230000A8230000103A02D396
:1001000078C878C1FAD8520701D330C830C101D5B8
:1001100004680C60704700000023002400250026BE
:10012000103A01D378C1FBD8520700D330C100D5B3
:100130000B6070471FB51FBD10B510BD00F05DF915
:100140001146FFF7F7FF01F0CFFF00F075F903B498
:10015000FFF7F2FF03BC00F07BF9000070B5054625
:100160000C46164602E00FCC0FC5103E102EFAD2F8
:10017000082E02D303CC03C5083E042E07D301CCBE
:1001800001C5361F03E021782970641C6D1C761EA2
:10019000F9D270BD0748804707480047FEE7FEE7F1
:1001A000FEE7FEE7FEE7FEE704480549054A064B81
:1001B00070470000E11B0008B90000089002002011
:1001C00090080020900400209004002001E004C06A
:1001D000091F0429FBD28B0701D50280801CC907A7
:1001E00000D00270704700290BD0C30702D0027004
:1001F000401C491E022904D3830702D50280801CBB
:10020000891EE3E70022EEE70022DFE70022030970
:100210008B422CD3030A8B4211D300239C464EE021
:1002200003460B433CD4002243088B4231D30309DD
:100230008B421CD3030A8B4201D394463FE0C3098F
:100240008B4201D3CB01C01A524183098B4201D3A7
:100250008B01C01A524143098B4201D34B01C01A92
:10026000524103098B4201D30B01C01A5241C3080A
:100270008B4201D3CB00C01A524183088B4201D379
:100280008B00C01A524143088B4201D34B00C01A65
:100290005241411A00D201465241104670475DE07A
:1002A000CA0F00D04942031000D3404253400022FD
:1002B0009C4603098B422DD3030A8B4212D3FC22A6
:1002C000890112BA030A8B420CD3890192118B4225
:1002D00008D3890192118B4204D389013AD092113B
:1002E00000E08909C3098B4201D3CB01C01A5241F6
:1002F00083098B4201D38B01C01A524143098B42BF
:1003000001D34B01C01A524103098B4201D30B01A7
:10031000C01A5241C3088B4201D3CB00C01A5241CC
:1003200083088B4201D38B00C01A5241D9D24308B3
:100330008B4201D34B00C01A5241411A00D20146F0
:10034000634652415B10104601D34042002B00D55A
:100350004942704763465B1000D3404201B500201C
:10036000C046C04602BD7047704770470102C215C3
:1003700004D00123DB071943002A0ADB9E239A1AC3
:1003800002D40846D0407047FF2241001206914235
:1003900001D900207047C017C04370471F22030CCB
:1003A00002D10F2200041CD0030E01D10002083A32
:1003B000030F01D10001121F830F01D18000921E93
:1003C000002801DB4000521ED205511802125118BC
:1003D0001922904004D3491C002801D14908490042
:1003E00008467047C10FC90700D04042012292075A
:1003F0001143D3E701218907D0E7754600F024F8BF
:10040000AE46050069465346C008C000854618B090
:1004100020B5FFF7C9FE60BC00274908B646002694
:10042000C0C5C0C5C0C5C0C5C0C5C0C5C0C5C0C5A4
:10043000403D49008D46704710B50446C046C04651
:100440002046FFF784FE10BD004870472C020020B4
:1004500001491820ABBEFEE72600020070470000ED
:100460000E480F4900684A79034613430D4A01D1EB
:100470004B785380012801D008780DE090784872BD
:100480000A7A824208D0012802D0022804D101E071
:10049000012200E002220A70087270474C0100201D
:1004A0000800002040010020024610B5002001464F
:1004B0004B00D35A491C181889B280B20A29F7D3C5
:1004C0000A21FFF7A3FE10BD70B500210D4A0C24D0
:1004D0001368DB07FCD00C4DA14211D293682B406E
:1004E0001B1D936013685B07DB0FFBD0136C0229A5
:1004F00003D34E003618403EB387491C89B2EBE760
:1005000070BD000000240140E8FFFF7F0249012088
:1005100008700620704700000600002000B5014664
:1005200019200870E620487001F05CFA020A8A700F
:10053000C870062000BD000070B58CB0054600F004
:1005400011FA154E304600F0C5F914480424002174
:100550002A5D0270641C491CC9B2401CE4B23429F3
:10056000F6D30E492C2210316846FFF7F7FD0B4DEC
:100570000FCD103D00F064F92946A86330220C31FC
:100580006846FFF7EBFD0ECD304601F098FCA41C49
:10059000E0B20CB070BD0000203F00084C0100200C
:1005A00030B513480068022819D11248124A008851
:1005B000957A022401231149A84207D090728D78C0
:1005C000D57200280CD0147093724C804988D57A6B
:1005D000A94204D09072D172022906D0137030BDA6
:1005E0001370002595724B80F0E7147030BD000049
:1005F0004C010020040000200800002040010020E1
:1006000010B50E48012200680D49002804D0087872
:10061000022810D08A7110BD0A48006902231840D0
:10062000C8718C79844204D0002801D00A7000E09F
:100630000B70887110BD0020FBE700004C0100200A
:1006400008000020000400480849087900280CD15F
:1006500001208870087110210922D2069161402181
:100660009161034A1168014311607047080000203E
:1006700000480140002803D0012806D0022070471E
:10068000022907D80448016002E0491E012901D867
:1006900000207047012070474C01002070B50D46C6
:1006A000044601F09FF90646A81EC1B2204600F09C
:1006B000ABF881B2174A00201080A078E2780002DF
:1006C0008018B04215D160192038C27F807F120295
:1006D000101888420DD16078C043C1B2207888429A
:1006E00007D1192807D0282809D037280BD09128FE
:1006F0000DD0002070BD2046FFF710FF70BD2046D2
:1007000001F05EF970BD2046FFF716FF70BDFFF7E0
:10071000FDFE70BD1C00002010B5074A0021435C9F
:10072000545CA34201D0002010BD491CC9B21B2952
:10073000F5D3012010BD0000482400080FB430B5E7
:10074000174D8DB0284601F053F9164C00280AD0F9
:10075000302213A96846FFF701FD10A90EC92846EB
:1007600001F0C2FB13E001F09FF900F0FBF828460E
:1007700000F0B0F800F0CAF80A4930220C3168469F
:10078000FFF7ECFC0ECC28460C3C01F098FB064928
:10079000208848800DB030BC08BC04B01847000069
:1007A000203F00084C0100204001002030B5144BD0
:1007B000012458791946134D4978002807D0022999
:1007C00004D1DC70FFF740FFAC621C7030BD1878BC
:1007D0008142FBD0002803D0012804D0022807D092
:1007E00001F054FB08E0DC70FFF72EFFAC6203E081
:1007F000DC70FFF729FFAC611878587030BD00003D
:10080000080000200014004830B503460A480B4D8C
:100810000CE01A78504000225B1CC407E40F40082B
:10082000002C00D06840521C082AF6DB0A46491EFC
:10083000C9B2002AEDD130BDFFFF000001A00000C9
:100840000FB4F8B507460DA871C8FFF78FFD0799DB
:10085000099A7B18089989185A180A9952180B99FD
:1008600052180C99511847182046FFF77FFD3C1885
:100870002846FFF77BFD24183046FFF777FD241844
:100880001198FFF773FD24181298FFF76FFD2118D8
:100890001398F8BC08BC0818401C04B018470000A6
:1008A0000A490A8A0846408A322A0AD34A79002A23
:1008B00007D0401C80B24882642806D300204882BA
:1008C000FEE7002801D0401E488270470800002043
:1008D00072B6FEE700B5034601F0FEFB0028FBD030
:1008E000094908690222104308614B6108694023E5
:1008F0001843086101F0F0FB0028FBD00869904321
:10090000086101F0DBFB00BD0020024002480169E4
:1009100080221143016170470020024030B50C462F
:10092000034601F0D9FB0028FBD00D4D28690121B9
:10093000084328611C8001F0CFFB0028FBD001F0A8
:10094000BDFB00280BD0200C588001F0C5FB00280F
:10095000FBD0286940084000286101F0AFFB30BDA2
:10096000002002400348024941600349416070474A
:100970002301674500200240AB89EFCD07490848B5
:100980008A898280C989C180064800698107064832
:1009900001D5002100E001210180704708000020FE
:1009A0004001002000040048040000200248816843
:1009B00002788918816070472400002010B506482D
:1009C0000168102211430160032000F007F800F0D5
:1009D00027F8002010BD00000020024070B504463A
:1009E0000D4D7D202978C000FFF710FC01460B4813
:1009F0000068FFF70BFC00F037F8002809D1042C41
:100A000007D200222146401E00F02AF800206C6028
:100A100070BD012070BD00002400002030000020C7
:100A200008B508488169012211438161816911403B
:100A30000091C26901040A43C261C0690840009084
:100A400008BD000000100240002805DBC106C90EE9
:100A500001208840014908607047000000E100E083
:100A600010B501F0A1FA10BD094910B5401E884229
:100A700001D9012010BD074C60610321081F01F05E
:100A800093FA0020A06107202061002010BD000023
:100A9000FFFFFF0000E000E070477047F0B502463E
:100AA0002032137F012B1BD00126167702235377A8
:100AB00003685D689C687027BD430F682F435F60C3
:100AC0000068084B984202D0074B984204D180231B
:100AD00049689C4321438160567700201077F0BD20
:100AE0000220F0BD002C01400004004070B504005D
:100AF00005D025462035687F002802D006E0012079
:100B000070BD00202877204600F014F80220687796
:100B1000211D206801F00AF901224034A271AA7750
:100B2000EA7722706270A270E270227162716A7755
:100B3000002070BD08B50068124A134990420DD1DB
:100B4000CA6902200243CA61C969002201400091BA
:100B500011461020FFF784FF102010E00B4A90424E
:100B60000FD18A690120800402438A6189690022C9
:100B70000140009101211620FFF772FF1620FFF7B8
:100B800063FF08BD0004004000100240004801401F
:100B9000F8B5054604462035287F0026012817D0E1
:100BA0000120287702206877206882687727FF2352
:100BB000BA431B029A4382600868502837D00EDC83
:100BC00020284ED006DC00284BD010281ED148E04B
:100BD0000220F8BD302844D0402817D139E06028E1
:100BE0002DD0702819D001221203801A0FD0904204
:100BF0000CD1CB684A688968206801F0D5F8206874
:100C00008168012292031143816000E001260120E6
:100C10006877002028773046F8BDCB684A68896835
:100C2000206801F0C1F8206881683943ECE7CA68A0
:100C30004968206801F0CBF85021206806E0CA68B6
:100C40004968206801F0D4F86021206801F0B7F805
:100C5000DDE7CA684968206801F0B9F840212068DA
:100C6000F4E7226801461046F0E7704770B5044685
:100C7000006801690025C9438907002915DBC1689F
:100C8000C943890711D4E91E01610120207720683A
:100C900080698007204602D0FFF7E7FF04E000F0FC
:100CA00096F8204600F094F8257720680169C9433A
:100CB000490717D4C168C943490713D40421C9435C
:100CC000016102202077206880698005800F20461E
:100CD00002D0FFF7CAFF04E000F079F8204600F0E8
:100CE00077F8257720680169C943090716D4C168D8
:100CF000C943090712D40821C943016104202077A0
:100D00002068C0698007204602D0FFF7AEFF04E0EC
:100D100000F05DF8204600F05BF825772068016957
:100D2000C943C90617D4C168C943C90613D41021E1
:100D3000C9430161082020772068C0698005800FC1
:100D4000204602D0FFF791FF04E000F040F8204673
:100D500000F03EF8257720680169C943C90708D12A
:100D6000C168C943C90704D1891E0161204600F04A
:100D700030F820680169C943090609D4C168C9432C
:100D8000090605D48021C94301612046FFF784FE8E
:100D900020680169C943490609D4C168C9434906A5
:100DA00005D44021C9430161204600F013F82068B2
:100DB0000169C943890609D4C168C943890605D4B4
:100DC0002021C94301612046FFF767FE70BD7047CF
:100DD000704770477047FEE770B583680022DB07F5
:100DE000DB0F02D00122104670BD8C684B68C568CD
:100DF0002343CC68054E35402C432343C36003692D
:100E000009689B009B080B430361ECE7C73FFFFFAA
:100E100030B583680022DB07DB0F02D001221046C9
:100E200030BD18C94D6823430C6889682C4323439F
:100E30000B43C168024C21400B43C360EFE7000045
:100E40003CC2FEFF08B504494A6902434A61496948
:100E50000140009108BD000000100240F0B50023E1
:100E60004CE001249C40224047D04C68012C01D02A
:100E7000022C10D18D688668144654436700E71928
:100E8000BE436C4326438660CD680C684668A64323
:100E90006C43264346600F69C66814465443650098
:100EA0006519AC46AE4325467D432E43C6604D686A
:100EB000022D1BD1FF2A0CD84F69056A164622461F
:100EC000724372431601B61AB5437A43154305625D
:100ED0000CE0150A2A466A436A436A4315014E69C3
:100EE000476AAD1AAF437243174347624A680568C1
:100EF0006646B5435443254305605B1C0A681446A7
:100F0000DC40AED10020F0BD014610B50020002924
:100F10000FD1104A116B8907890F01290AD00229C4
:100F200011D0032909D000F01BFD00F0FFFC00F0F8
:100F30000BFD10BD00F014FD10BD11688907C90F2D
:100F4000FAD0054810BD116A8907C90FFAD00120EF
:100F5000C00310BD0010024000127A000149086071
:100F6000704700003000002070B50268174B184E23
:100F7000984201D0B04203D17024A2434C6822436E
:100F8000144C154D984208D0B04206D0134EB042D2
:100F900003D0A04201D0A84204D103263602B243B6
:100FA000CE68324302608A68C2620A8882629842CE
:100FB00003D0A04201D0A84201D10969016341696F
:100FC000012211434161002070BD0000002C01404E
:100FD000000400400044014000480140002000405F
:100FE00070B5044600680D46012630403CD1E968E2
:100FF0006868AA69084329691143084321681B4AA4
:10100000114008432060A8686168032212039143DD
:10101000014361606869A168121191430143A160B5
:101020001348844220D10020FFF76EFF00281BD018
:101030002968002918D00123AA690026DB039A42F7
:101040000CD140004A088018FFF7E0F8094980B247
:1010500001400007420F0A43E26005E04A08101809
:10106000FFF7D4F880B2E060304670BDF369FFFF4F
:1010700000380140F0FF0000F0B591B000240B945F
:101080000C940D94142106A80E94FFF7BDF81821B6
:101090006846FFF7B9F82A480121826949020A43E4
:1010A000826182690A400F92426909020A434261E1
:1010B0004069032508400F900120009009206946EF
:1010C00001950494C006FFF7C9FE0226092069466F
:1010D000C006009601950494FFF7C0FE042709207E
:1010E0006946C006009701950494FFF7B7FE154DB9
:1010F000A86A01210843A862A86A3043A862A86AC6
:101100003843A8620B940C940D940BA928460E94B6
:10111000FFF762FE68140890012009900694079476
:1011200006A90A942846FFF773FEE868B843E8600A
:101130006869C008C0003043686111B0F0BD0000AC
:101140000010024000240140F0B587B01821684625
:10115000FFF75AF801208005FFF774FE01204004D4
:10116000FFF770FE01208004FFF76CFE2E4902207D
:1011700088620120886208200927FF06B8621020D3
:10118000B8622020B8624020B8628020B862002493
:1011900002200125032603946A46049461C269462D
:1011A0002148FFF75BFE0095039469461E480296AE
:1011B00001950494FFF752FE082003946A460494B4
:1011C00061C269463846FFF749FE102003946A461B
:1011D000049461C269463846FFF740FE202003941C
:1011E0006A46049461C269463846FFF737FE4020DC
:1011F00003946A46049461C269463846FFF72EFE9E
:10120000802003946A46049461C269463846FFF719
:1012100025FE022000900194694604940348FFF7DC
:101220001DFE07B0F0BD0000001400480004004897
:1012300008480749016008490160032141600749E6
:101240008160C1684907FCD1054901607047000011
:10125000CCCC00000030004055550000FF0F0000CE
:10126000AAAA000010B586B014216846FEF7CCFF8C
:101270001148FF21C26901310A43C261C0690840B7
:1012800005900021132000F06DFE132000F05EFE9B
:10129000FF20E1306946088000216420074C01915D
:1012A0000391029069462046FFF75EFE2168802286
:1012B0009143216006B010BD0010024000200040A4
:1012C00010B586B014216846FEF79EFF1248012132
:1012D000826949040A4382618069084005900121BE
:1012E000152000F03FFE152000F030FE0B48694647
:1012F000088000207D21C900094C019003900291D3
:10130000049069462046FFF72FFE21688022914312
:10131000216006B010BD000000100240C05D00005A
:101320000044014010B50B48094901602F2141607C
:10133000002181607D220161D2004161C260816132
:10134000FFF7D4FB002801D0FFF7C2FA10BD000060
:1013500000480140E401002010B586B0002400944C
:10136000174801940294039404941449059401606D
:10137000144984604160FF210461F5318461C160DA
:10138000FFF7B4FB002801D0FFF7A2FA0120000309
:10139000009069460A48FFF7FBFB002801D0FFF7E1
:1013A00097FA049404A906480594FFF777FB0028F0
:1013B00001D0FFF78DFA06B010BD00000004004018
:1013C0009C010020C05D0000F0B58FB01C2106A874
:1013D000FEF71AFF18216846FEF716FF2E48012176
:1013E000826989030A43826182690A400D92CA00B8
:1013F0004169114341614069012510400D9010126F
:1014000005950024009002270326092003946946CD
:10141000019702960494C006FFF720FDA8020595E7
:101420000090092003946946019702960494C0062F
:10143000FFF714FD194801680902090A01601849FB
:10144000E8060860174881680691C168079101693C
:101450000891406909900B940C940C20124C0A904E
:1014600006A92046FFF7BCFDEFF31080012181F3B0
:101470001088A26889028A43A26080F3108860689D
:10148000490088436060A06808218843A060206804
:10149000284320600FB0F0BD0010024018E400E0C7
:1014A00000E100E04C01002000380140F8B554484C
:1014B0000168490849000160534C5248A61E651E48
:1014C0000078FF3400270134022811D121794E48D9
:1014D000FFF7E4F8A07100280AD0801EC1B24A4884
:1014E000FFF792F9A1798855A179000A48556771EB
:1014F0004548FFF711F900281BD0444841490780AF
:101500000220434A087010680121084310603E48D9
:10151000FFF704F8A071801EC1B23B48FFF774F9D1
:10152000A1798855A179000A48553648677102218A
:10153000017035480078002801D0012100E0002129
:101540002379052B01D9012200E000221140314A04
:101550001278904201D1012200E00022FF281DD024
:1015600000200243114230D09B1ED9B22648FFF71B
:101570004BF92179C3B28A5D9A4225D1495D000AAF
:10158000814221D12048407804282DD008DC012850
:1015900024D0022825D0032808D125E00120E0E747
:1015A000052824D0062825D0102826D0012000F0B8
:1015B0000BF9A079801EC1B21348FFF725F9A17974
:1015C0008855A179000A48556771E7710C49277160
:1015D00008680122104308602760F8BD00F01CF87D
:1015E000E7E700F01FF8E4E700F04CF8E1E700F06F
:1015F00085F8DEE700F088F8DBE700F0ABF8D8E725
:101600000020004007000020340000201C000020C3
:10161000004401400000002000B5022000F0D4F892
:1016200000BD0000F0B5144D0020A978EA78090249
:1016300089180A0912018C1A002905D129796A79B9
:1016400009028A18012A03D9022000F0BDF8F0BD72
:1016500003211309094E5B1C06E04200B25AE24026
:101660000F18401CEA55491C9842F6D3A87004494B
:10167000401D8871F0BD00003400002004000020EF
:1016800034010020F0B51B4E0022B078F178000242
:101690004418062C06D230797179000243181819C3
:1016A000062803D9022000F08FF8F0BD0320E118CE
:1016B0000629FAD8062BF8D8802711E011194D0019
:1016C0000D49495B002905DA0D0A3D4335543518AB
:1016D000697003E035186970090A3154801C521C86
:1016E0009A42EBD304495000B0700C39401D887108
:1016F000F0BD0000340000204001002000B50220B1
:1017000000F062F800BD000070B510488178C27822
:1017100009028C18062C01D302200BE001794079D4
:1017200009020D18A9B2E0B2094AFEF7A3FF00288A
:1017300003D0032000F048F870BD054960000D5249
:10174000034808210C38817170BD0000340000206E
:1017500040010020F8B51A4800248178C2780902B7
:101760008E18062E06D20179407909020F18B81991
:1017700006281ED9022010E0114861000D18E879F2
:10178000297A0002401881B230190090C0B20D4A87
:10179000FEF770FF002803D0032000F015F8F8BD15
:1017A000E879297A000240180099064A4900505207
:1017B000641CBC42E0D3034808210C388171F8BD99
:1017C0003400002040010020044980234A781A4355
:1017D0004A708870024805218171704734000020EA
:1017E000340100201048817900291CD0417900295A
:1017F00019D10E49CA6852085200CA600C490A68D9
:1018000020239A430A600A6840231A430A60802111
:101810000922D2069161C11FF939054A097820329F
:1018200011810121417170473401002000200040E6
:101830000038014010B50448C079012803D1FFF7F2
:1018400035FEFFF7CFFF10BD3401002009480168C5
:101850004A1C0260027A914204D90179012901D916
:10186000012100E00021C1710348016949084900D4
:1018700001617047340100200020004010B510487D
:10188000002101600279FE2A00D901710D4AD16957
:10189000C907C90FD16104D0106A01210843106241
:1018A00008E00849203189880379074CE15401791F
:1018B000491C0171906908210843906110BD000026
:1018C00034010020003801403400002030B51348B6
:1018D000134A417984794023A14208D2C41FF93CBC
:1018E0000F4D645C20352C81491C417111E00021B1
:1018F000817180200921C90688621068202108436F
:1019000010601068984310600648C16801242143A4
:10191000C160106A1843106230BD0000340100201D
:101920000038014000200040FEE770470449496844
:10193000F0221140034A0909515CC8407047000079
:10194000001002406424000803494968034A49051D
:10195000490F515CC84070470010024074240008D1
:1019600010B5064841680C200140054805D00429FF
:1019700003D0082901D100F005F810BD0010024085
:1019800000127A0010B50C4C6168012212040B4859
:10199000114002D0914200D14000E16A0907090FCD
:1019A000491CFEF733FC61680F2292041140890C38
:1019B000891C484310BD00000010024000093D0092
:1019C000034610B5064A0420002114781C54401C1C
:1019D000491CC9B2521CC0B23A29F6D310BD00004E
:1019E0004C0100200148008B80B270474C01002060
:1019F00000B50168A9B01A9141681B9181681C91DA
:101A0000C1681D9101691E9141691F9181692091F1
:101A1000C1692191016A2291416A2391816A2491CD
:101A2000C16A2591016B2691416B2791806B2890AB
:101A30001A980B901B980C901C980D901D980E9066
:101A40001E980F901F981090209811902198129036
:101A50002298139023981490249815902598169006
:101A60002698179027981890289819902C220FA93B
:101A70006846FEF773FB0BA80FC8FEF7E1FE289936
:101A8000884202D1012029B000BD0020FBE7704749
:101A900010B501460248FEF7B9FB0249087210BDB5
:101AA000A086010034010020F0B5124C8BB0002557
:101AB00001204B262560F6010703211D2561C1C1C8
:101AC0008002A56160617F20C005E06125626062DF
:101AD000A5622563E062084860632C226846FEF731
:101AE0003DFB3B46324601212846FEF7A9FEA06396
:101AF0000BB0F0BD4C0100204C04000010B5FEF707
:101B000055FF10BD10B53348012102688A430A43CE
:101B100002600168C907C90FFBD02F4C2068012162
:101B20000843206020688007C00FFBD02068F8229F
:101B30009043802318432060606B08436063606BB0
:101B40008007C00FFBD0606B904318436063606AEE
:101B500008436062606A8007C00FFBD0052160689F
:101B6000C9043D221204904308436060E06A000902
:101B70000001E06220680121090608432060206816
:101B80008001C00FFBD06068F0218843606060680E
:101B90000721090288436060616802208908890082
:101BA000014361600C21606808400828FBD10B48A4
:101BB000FFF7D4F90320FEF711FF002801D072B619
:101BC000FEE7606B042188436063206B800880001F
:101BD000206310BD0020024000100240006CDC02B7
:101BE0007047000010B5FFF731FE0348016949084E
:101BF0004900016110BD00000020004030B5104CCC
:101C0000104B2088401C82B2228058690221054670
:101C10000D402D0481430D439D610B490A2A0AD3CF
:101C200000202080094A0120107008684008400008
:101C3000086002209861086940084000086130BDD2
:101C40001C00002000140048004401400700002050
:101C500070B51E491E4A48680024401C486013782D
:101C60001C4D002B08D0052827D31020290488629A
:101C700040208862147020E0174E3278002A11D07C
:101C800006281AD300F002F914480078012802D07F
:101C9000022805D102E000F00BF901E000F001F9A3
:101CA00034700AE0512808D34C6000F0EFF80C487B
:101CB00004702868400840002860286940084000F7
:101CC00028610848FEF7D2FF70BD00001C0000200C
:101CD0000A000020004801400B00002008000020FE
:101CE0000C000020E401002010B50C480C4A0078DC
:101CF00000280BD05069022103460B401B0481438E
:101D00000B4393610748FEF7B1FF10BD0648016819
:101D100049084900016002209061F3E70D000020AE
:101D2000001400489C0100200004004070B50268C7
:101D3000184C194EA04201D0B04204D11346702570
:101D40004A68AB431A43154B154DA04208D0B04228
:101D500006D0144EB04203D0984201D0A84204D11C
:101D600003263602B243CE6832438026B2434E6920
:101D7000324302608A68C2620A688262A04203D06B
:101D8000984201D0A84201D1096901630121416152
:101D900070BD0000002C01400004004000440140E0
:101DA000004801400020004030B58468FF252D0226
:101DB0001B021343AC430B432343836030BD826853
:101DC00070239A430A4307210A438260704730B563
:101DD000036A046A6408640004628469F025AC4301
:101DE000120122430A24A3430B438261036230BDE4
:101DF00030B5036A1024A34303628369046A0F2584
:101E00002D031203AB431A43A0239C430901214332
:101E10008261016230BD000010B50748C1698906C2
:101E2000C90F06D000688006C00F02D0FFF726FD5C
:101E300010BDFFF74BFD10BD0038014070B5104AD2
:101E4000012410465379C1898089002B12D00D4D91
:101E500003236B800C4B1E68264002D11E6826436C
:101E60001E60502805D3AF2903D30020507150784D
:101E7000688070BD4B2801D3AA29FAD2547170BD75
:101E8000080000204001002000040040102109202B
:101E9000C006816240218162082181622021816225
:101EA000704740200921C906886108208861704771
:101EB00010200921C90688612020886170470FB46D
:101EC00070B5064605ADFEF74DFD002402CD301974
:101ED000FEF724FD241D3C2CF8D3FEF717FD70BC43
:101EE00008BC04B018470000F0B501688DB0164C6E
:101EF00021600B91476867608668A660C568E560E9
:101F000001692161416961618169A161C169E16121
:101F1000016A2162416A6162816AA162C16AE16209
:101F2000016B2163406B214660632C2210316846AF
:101F3000FEF714F92B46324639460B98FEF780FC23
:101F4000A0630DB0F0BD00004C010020002805DBAF
:101F5000C106C90E01208840014908607047000091
:101F600000E100E08307FF22DB0E9A408907090E9B
:101F70009940002808DB830809489B00181803686B
:101F800093430B43036070470007000F0838830832
:101F900004489B001818C36993430B43C3617047FF
:101FA00000E400E000ED00E08307FF22DB0E9A4032
:101FB0008907090E9940002808DB830809489B001F
:101FC0001818036893430B43036070470007000F22
:101FD0000838830804489B001818C36993430B43CF
:101FE000C361704700E400E000ED00E0F8B52A4D61
:101FF0000120A8622948FEF767FA2848FEF754FA3C
:10200000FEF7F8F9264C06462649E06900F05CF92F
:10201000314600F059F9216A00F010F9FEF7A6F9EF
:10202000214E30820220A8621C48FEF74DFA1B4860
:10203000FEF73AFAFEF7DEF907461C49606A00F03F
:1020400043F9394600F040F9194900F0F7F8A16A60
:1020500000F0F4F8FEF78AF9B0810427AF620F4868
:10206000FEF732FA0D48FEF71FFAFEF7C3F90090AB
:102070001049E06A00F028F9009900F025F90E49AE
:1020800000F0DCF8216B00F0D9F8FEF76FF9F08171
:102090002F6008202860F8BD00240140880100203E
:1020A0004C0100201CEB223E0800002023322C3D76
:1020B0001F8533418E23963D08ACB0400548C1686A
:1020C000890605D5C16820221143C16001207047EF
:1020D00000207047002002400248C068C007C017B7
:1020E000401C7047002002408CB0FEF767FCFFF7F1
:1020F00009FD2C2242496846FEF730F8404C103C5E
:102100000FCC103CFEF71AFB20680126002804D0F3
:102110003C490E703C494E800880A068FFF7B8FC2F
:102120003A4F20793A4D3870A86817218843C9077B
:102130000843A860A868C00FFCD1FFF705F8FEF7B8
:102140009BFFFFF775F8FFF73FF9FFF78BF8FFF7F5
:10215000B7F8FFF7E7F8FFF7FFF8EFF3108001217A
:1021600081F310882B4B196820221143196080F3EA
:102170001088294801683143016021793970A968C4
:10218000264A1140491CA960C1683143C1602448F6
:10219000C1683143C1602348C1683143C1602248EE
:1021A000C1683143C160FEF74FFA1749208B08819F
:1021B000362048811D4902208861186840218843E3
:1021C00018601868802188431860194C194D1A4E00
:1021D000FEF716FAFEF744F9FEF7E2F92C60FFF776
:1021E00029FBFFF703FFFEF75BFBFEF7DFFAFFF7C4
:1021F00025FEFEF7C3FB30780028E9D0FEE700009B
:102200005C010020080000204001002000000020A8
:10221000002401400038014000200040E8FFFF7F1B
:102220000044014000040040004801400014004800
:10223000AAAA0000003000400600002070B5012569
:102240000400ED074C4020D4441A01D2001B0919A8
:10225000C60D4B00F2B2FF2A29D01B0E2CD0000273
:102260000C02D31A2C43DC402843051910D2280A4B
:1022700002D3401C6D0611D0761EF6058019FF2A88
:1022800000DA70BDC00DC00570BD694000F07AF87D
:1022900001200543C541521C761CE8E764089C40B8
:1022A000C90161408900E7D10124A043E4E71B0E86
:1022B000440200D0034870BD002AFCD1C00FC00703
:1022C00070BD00BF0000C07F70B5420064414B008C
:1022D0005C41120E39D01B0E38D0FF2A3CD0FF2BA8
:1022E0003AD040024902400A490A060045184E43C6
:1022F000000A090AD2184843ED017F3A0104731A13
:102300004019190C4318990F04D001215B084907A3
:102310005B1A521CD80904D3401CF50301D19D0659
:1023200007D0FF2A08D2D50506D0E407204340197C
:1023300070BD0125A843F4E7002A01DCE00770BD69
:102340002402FF202043C00570BD1B0EFF2A03D0CE
:10235000FF2B01D0E00770BDFF2645003606B542D1
:1023600006D84D00B54203D8D218FF2A00D0E7E7BF
:10237000004870BD0000C07F70B501250400ED0766
:102380004C4022D4441A02D26C40001B0919C60DDD
:102390004B00F2B2FF2A4BD01B0E50D000020C02B1
:1023A000D31A2C43DC40A843051B05D5AD0019D337
:1023B0006D08761E521E37D0F605280A01D2801904
:1023C00070BD70416D0603D070BD6940FFF73CFFE2
:1023D0009C4009026140490001D0401E70BD0124AB
:1023E000A04370BD6D081DD001202B0C01D12D0420
:1023F00010302B0E01D12D0208302B0F01D12D01F1
:10240000001DAB0F01D1AD00801CEB0F01D16D00A1
:10241000401C6D00361A121A680AF5054019012A87
:1024200002DB70BD002070BDC036300AC00770BD31
:102430001B0E440201D1FF2B00D1024870BD002ABF
:10244000F0D070BD0000C07F42494B454D495F4C04
:102450004C5F53544152545F50524F4752414D4D7F
:10246000494E470000000000000000000102030484
:102470000607080900000000010203049C2400086C
:102480000000002034000000FC000008D0240008F8
:10249000340000205C080000180100080100000062
:1024A0000000000000000000000101010000000029
:1024B000000000000000000000000000000000001C
:1024C00001000000040000000000000000127A007B
:04000005080000B936
:00000001FF
