:020000040800F2
:10080000D009002095090008152A0008EF190008F2
:1008100000000000000000000000000000000000D8
:10082000000000000000000000000000D12C0008C3
:100830000000000000000000192A0008852D0008B3
:10084000A709000800000000A7090008A709000880
:10085000A7090008A7090008A7090008A7090008B8
:1008600000000000A7090008A7090008A709000860
:10087000A7090008A7090008A70900080000000050
:100880006D3000080000000000000000212F00086B
:1008900000000000392F00088D2F0008A70900086C
:1008A00000000000A709000800000000D131000886
:1008B00000000000DDCCBBAA00F002F800F03EF81A
:1008C0000CA030C8083824182D18A246671EAB4665
:1008D00054465D46AC4201D100F030F87E460F3EF2
:1008E0000FCCB6460126334200D0FB1AA246AB46D7
:1008F00033431847C8310000E8310000103A02D3F2
:1009000078C878C1FAD8520701D330C830C101D5B0
:1009100004680C60704700000023002400250026B6
:10092000103A01D378C1FBD8520700D330C100D5AB
:100930000B6070471FB51FBD10B510BD00F05DF90D
:100940001146FFF7F7FF02F0B9FE00F075F903B4A6
:10095000FFF7F2FF03BC00F07BF9000070B505461D
:100960000C46164602E00FCC0FC5103E102EFAD2F0
:10097000082E02D303CC03C5083E042E07D301CCB6
:1009800001C5361F03E021782970641C6D1C761E9A
:10099000F9D270BD0748804707480047FEE7FEE7E9
:1009A000FEE7FEE7FEE7FEE704480549054A064B79
:1009B000704700001D2F0008B9080008D003002070
:1009C000D0090020D0050020D005002001E004C09F
:1009D000091F0429FBD28B0701D50280801CC9079F
:1009E00000D00270704700290BD0C30702D00270FC
:1009F000401C491E022904D3830702D50280801CB3
:100A0000891EE3E70022EEE70022DFE70022030968
:100A10008B422CD3030A8B4211D300239C464EE019
:100A200003460B433CD4002243088B4231D30309D5
:100A30008B421CD3030A8B4201D394463FE0C30987
:100A40008B4201D3CB01C01A524183098B4201D39F
:100A50008B01C01A524143098B4201D34B01C01A8A
:100A6000524103098B4201D30B01C01A5241C30802
:100A70008B4201D3CB00C01A524183088B4201D371
:100A80008B00C01A524143088B4201D34B00C01A5D
:100A90005241411A00D201465241104670475DE072
:100AA000CA0F00D04942031000D3404253400022F5
:100AB0009C4603098B422DD3030A8B4212D3FC229E
:100AC000890112BA030A8B420CD3890192118B421D
:100AD00008D3890192118B4204D389013AD0921133
:100AE00000E08909C3098B4201D3CB01C01A5241EE
:100AF00083098B4201D38B01C01A524143098B42B7
:100B000001D34B01C01A524103098B4201D30B019F
:100B1000C01A5241C3088B4201D3CB00C01A5241C4
:100B200083088B4201D38B00C01A5241D9D24308AB
:100B30008B4201D34B00C01A5241411A00D20146E8
:100B4000634652415B10104601D34042002B00D552
:100B50004942704763465B1000D3404201B5002014
:100B6000C046C04602BD7047704770470102C215BB
:100B700004D00123DB071943002A0ADB9E239A1ABB
:100B800002D40846D0407047FF224100120691422D
:100B900001D900207047C017C04370471F22030CC3
:100BA00002D10F2200041CD0030E01D10002083A2A
:100BB000030F01D10001121F830F01D18000921E8B
:100BC000002801DB4000521ED205511802125118B4
:100BD0001922904004D3491C002801D1490849003A
:100BE00008467047C10FC90700D040420122920752
:100BF0001143D3E701218907D0E7754600F024F8B7
:100C0000AE46050069465346C008C000854618B088
:100C100020B5FFF7C9FE60BC00274908B64600268C
:100C2000C0C5C0C5C0C5C0C5C0C5C0C5C0C5C0C59C
:100C3000403D49008D46704710B50446C046C04649
:100C40002046FFF784FE10BD004870476C0300206B
:100C500001491820ABBEFEE72600020070470000E5
:100C60001A480068002807D119480078002803D1E5
:100C700018480078184948801448006801281ED197
:100C80001548807815490870154800780978884219
:100C900010D012480078012802D0022808D103E0C1
:100CA00001201049087004E002200E49087000E09D
:100CB00000BF00BF094800780949087004E00948EE
:100CC000007807490870704700BFFCE71402002055
:100CD000D8000020C900002008020020DC0000200D
:100CE000DB000020C800002070B50446002500206D
:100CF00005E04100615A49198DB2411C88B205498D
:100D0000496B8142F5D80348416B2846FFF77EFEC8
:100D100070BD00001402002010B501460020002222
:100D20001B4B1B8F1A4CA48E1B199AB200BF194B78
:100D30001B68DB07DB0F002BF9D025E000BF154B4C
:100D40009B68154C23401B1D124CA36000BF00BFC5
:100D500000BF104B1B68042423409B08002BF7D0D6
:100D60000B4B9B6B834209D800BF0A4B1B6C9BB299
:100D7000074CA46B041B64000B5303E000BF054B3E
:100D80001B6C00BF431C98B29042D7DB10BD000023
:100D90001402002000240140E8FFFF7F01200249E7
:100DA0000870062070470000C200002000B5014610
:100DB000002219200870E620487001F0B3FE0246B8
:100DC00010128870CA70062000BD000070B596B081
:100DD000044600F021FB164800F0C4FA154D042625
:100DE000002007E03146721CD6B2615C29706D1C90
:100DF000411CC8B25C28F5D354220E491031684614
:100E0000FFF7ACFD0B480FC800F03AFA0949086635
:100E100058220C316846FFF7A1FD06480EC8044869
:100E200002F06AFAB01CC0B2064616B070BD0000EF
:100E3000203F0008140200202248006802283DD10B
:100E4000214800882149097888421ED01E48007830
:100E50001E4908701E4880781E4908701A4800888C
:100E6000002809D101201C4908700020174908708A
:100E700001201749488008E0022017490870012026
:100E800012490870022012494880114840881149CF
:100E90000978884213D00C4800780C4908700C4837
:100EA00080780C4908700A484088022802D10A4913
:100EB000087004E001200849087000E0704700BF96
:100EC000FCE7000014020020BE000020DD0000202E
:100ED00008020020DE000020C8000020164800683C
:100EE00000281BD100BF15480069022108401449A1
:100EF000087014480078097888420AD010480078B1
:100F0000002803D001201049087002E002200E4999
:100F100008700B4800780B4908700BE00A4800780D
:100F2000022803D100200749087002E0012005498A
:100F30000870704700BFFCE714020020000400485E
:100F4000DA000020D9000020C800002010B50C48AD
:100F50000078002800D010BD01200A490870084917
:100F6000087010210920C00600F022FE402109204F
:100F7000C00600F01DFE044800F084FE00BFEAE752
:100F8000D2000020D0000020004801400346002B82
:100F900002D0012B12D109E0002905DB022903DC74
:100FA00007480160002070470120FCE7012903DBAE
:100FB000022901DC0020F6E70120F4E70220F2E735
:100FC000140200200FB40D98002802D00D9832288A
:100FD00002D9012004B0704700BF0E980A2801D939
:100FE0000220F7E70F98002802D00F98142801D9A3
:100FF0000320EFE710981E2802D31098C82801D9C3
:101000000420E7E71198002802D011980A2801D996
:101010000520DFE71298322802D31298962801D9CA
:101020000620D7E713983C2804D3FF212D311398CD
:10103000884201D90720CDE71498002802D01498DF
:101040000A2801D90820C5E715980A2804D37D216C
:10105000C9001598884201D90920BBE716980528D0
:1010600004D3FF21F5311698884201D90A20B1E74F
:101070000020AFE7F8B504460D4600260027002003
:10108000009001F04FFD0646A81EC1B2204600F0B8
:10109000D5F887B200201C490880A0780002E178CA
:1010A0004018B04201D00020F8BD681E205C01024B
:1010B000A81E205C0818B84201D00020F4E7607830
:1010C000C043C0B2009021780098814201D0002036
:1010D000EAE72078192806D0282808D037280AD02F
:1010E00091280FD10BE02046FFF760FEDCE7204699
:1010F00001F004FDD8E72046FFF768FED4E7FFF7CC
:101100004DFED1E70020CFE7E40000200246002199
:1011100008E0505C054B5B5C984201D000207047B2
:10112000481CC1B21B29F4D30120F8E7883A000813
:101130000FB400B597B0164801F0FAFC00280AD0A9
:1011400058221BA96846FFF709FC114818A90EC9C7
:1011500002F0E8F813E001F0CBFD00F05DF90C4877
:1011600000F000F900F022F958220A496846FFF71A
:10117000F5FB08480C380EC8054802F0BDF80548D4
:101180000C3800880449488017B008BC04B01847E0
:10119000203F0008200200200802002010B522484D
:1011A0000078002810D02148007802280BD10120B7
:1011B0001F490870FFF7CAFE01211E4800F0F2FC2B
:1011C00001201D49087010BD184800781A49097897
:1011D000884227D018480078002804D0012805D07C
:1011E000022817D10CE002F059F816E0012010494E
:1011F0000870FFF7ABFE01210E4800F0D3FC0CE0B5
:1012000001200B490870FFF7A1FE0121094800F0F9
:10121000CFFC02E002F042F800BF00BF06480078B1
:101220000249087000BFCEE7D8000020C9000020A6
:10123000D100002000140048C800002070B502460C
:101240000D480E4C002510E01478521C03466340F4
:101250001846002307E0C507ED0F4008002D01D018
:10126000064E70405B1C082BF5DB0B464E1EF1B2A0
:10127000002BE9D170BD0000FFFF000001A00000BD
:101280000FB410B50998FFF771FC039A02998918F9
:10129000049A8918059A8918069A8918079A89184C
:1012A000089A891844180A98FFF760FC24180B98CC
:1012B000FFF75CFC24180C98FFF758FC24180D98D5
:1012C000FFF754FC24180E98FFF750FC20180F99D4
:1012D0004018109940181199401812994018139904
:1012E00040181499401815994018169940181799E4
:1012F00040181899401819994018401C10BC08BC97
:1013000004B018471148406D11490988884212D825
:101310001048007800280ED00F480088401C0E4965
:1013200008800A48806D098888420DD800200A4943
:10133000088000BFFEE708480088002804D006485F
:101340000088401E044908807047000014020020F5
:10135000CE000020D8000020E000002072B600BFC0
:10136000FEE7000000B5024600BF02F09DF900282C
:10137000FBD00D480069022108430B49086108466B
:1013800042610069402108430749086100BF02F03B
:101390008BF90028FBD004480069022188430249E8
:1013A000086102F06FF900BD0020024003480069A7
:1013B0008021084301490861704700000020024075
:1013C00000B503460A4600BF02F06EF90028FBD0C4
:1013D00010480069012108430E4908611A8000BFC6
:1013E00002F062F90028FBD002F04CF9002800D18D
:1013F00000BD9B1C120C1A8000BF02F055F900289A
:10140000FBD004480069400840000249086102F02E
:1014100039F9EDE7002002400248034948600348DB
:10142000486070472301674500200240AB89EFCD3B
:101430000A4800880A4988800A480088C88000BF96
:101440000948006902210840002803D0002007490C
:10145000088002E00120054908807047CA0000208A
:1014600008020020CC00002000040048BE0000203C
:10147000034800680349097840180149086070472B
:10148000EC000020F400002010B506480068102190
:10149000084304490860032000F006F800F02EF825
:1014A000002010BD0020024070B5044610480178AD
:1014B0007D20C000FFF7AAFA064631460D480068B5
:1014C000FFF7A4FA054600F051F8002801D00120EA
:1014D00070BD042C07D200222146501E00F03CF8BB
:1014E0000548046001E00120F2E70020F0E7000079
:1014F000F4000020F8000020F000002008B500BF34
:101500000D488069012108430B49886108468069BC
:10151000C007C00F009000BF00BF00BF0846C069F1
:10152000090408430449C8610846C0690904084021
:10153000009000BF00BF08BD001002400146002916
:1015400005DBCB06DB0E01229A40024B1A6000BF7E
:101550007047000000E100E070B504460D461646F5
:101560002946204601F0BEFF70BD000070B504465C
:101570002546681E0949884201D901200CE0681EF1
:10158000074948610321081F01F0ACFF002004490E
:10159000886107200861002070BD0000FFFFFF0088
:1015A00000E000E07047704730B502460B4600BFD0
:1015B0003C20805C012801D1022030BD01253C2067
:1015C000855400BF02253D2085541068446810688A
:1015D000816870252046A8430446186804431068B3
:1015E00044600D4D1068A84203D00C4D1068A8420D
:1015F00007D180250846A843014658680143106872
:10160000816001253D20855400BF00253C20855484
:1016100000BF0020D1E70000002C01400004004082
:1016200010B50446002C01D1012010BD3D20005D05
:10163000002805D100213C200155204600F022F869
:1016400002213D200155211D206801F02DFD0121C1
:101650004620015500BF3E2001553F200155402046
:1016600001554120015500BF00BF422001554320D4
:101670000155442001554520015500BF3D2001552D
:101680000020D2E738B504461B492068884216D1AD
:1016900000BF1A48C069022108431849C8610846BA
:1016A000C06902210840009000BF00BF002211461F
:1016B0001020FFF751FF1020FFF740FF1BE01049FB
:1016C0002068884217D100BF0C4880690121890435
:1016D00008430A4988610846806901218904084055
:1016E000009000BF00BF002201211620FFF734FF49
:1016F0001620FFF723FF38BD000400400010024011
:1017000000480140F8B504460D460020009000BF97
:101710003C20005D012801D10220F8BD01213C20C0
:10172000015500BF02213D200155206886687721C0
:10173000304688430646FF21090230468843064664
:10174000206886602868502834D00CDC202851D0CE
:1017500004DC00284CD0102852D14AE030284AD06E
:1017600040284DD13AE060282ED0702807D00121C2
:101770000903401A02D0401A42D10DE043E0EB6861
:101780006A68A968206801F0D7FC2068866877201D
:1017900006432068866036E0EB686A68A9682068BE
:1017A00001F0CAFC20688068012189030843216890
:1017B000886028E0EA686968206801F0D7FC502159
:1017C000206801F0C7FC1EE0EA686968206801F043
:1017D000E6FC6021206801F0BDFC14E0EA6869685D
:1017E000206801F0C3FC4021206801F0B3FC0AE04E
:1017F00000BF00BF00BF2968206801F0ABFC02E019
:101800000120009000BF00BF01213D20015500BF15
:1018100000213C20015500BF00987EE7704710B5BD
:1018200004462068006902210840400800281CD0B6
:101830002068C06808404008002816D0481F21686A
:10184000086101202077206880698007800F0028C8
:1018500003D02046FFF7E2FF05E0204600F0C3F882
:10186000204600F0C1F8002020772068006904219C
:101870000840800800281DD02068C0680840800803
:10188000002817D0C843216808610220207720680B
:101890008069032109020840002803D02046FFF791
:1018A000BDFF05E0204600F09EF8204600F09CF8C1
:1018B000002020772068006908210840C00800281F
:1018C0001CD02068C0680840C008002816D0C84353
:1018D00021680861042020772068C0698007800F94
:1018E000002803D02046FFF799FF05E0204600F0CE
:1018F0007AF8204600F078F8002020772068006908
:1019000010210840000900281DD02068C068084048
:101910000009002817D0C8432168086108202077F3
:101920002068C069032109020840002803D020462E
:10193000FFF774FF05E0204600F055F8204600F060
:1019400053F80020207720680069C007C00F0121EC
:101950004840484000280CD02068C06808404840F3
:101960004840002805D0C81E21680861204600F0C4
:101970003CF82068006980210840C00900280BD08D
:101980002068C0680840C009002805D0C843216805
:1019900008612046FFF706FE2068006940210840E4
:1019A000800900280BD02068C06808408009002802
:1019B00005D0C84321680861204600F017F8206868
:1019C000006920210840400900280BD02068C06829
:1019D00008404009002805D0C84321680861204616
:1019E000FFF7E1FD10BD704770477047704700BFBB
:1019F000FEE700000148024908607047AAAA0000FB
:101A00000030004070B504460D460026204600F028
:101A100019F8002810D1A96868680843E9680843E4
:101A2000E168074A11400843E060206980008008AF
:101A300029680843206100E00126304670BD00009F
:101A4000C73FFFFF01468868C007C00F0122504012
:101A50005040704770B505460C4600262846FFF7F3
:101A6000F1FF00280ED1616820680843A16808438F
:101A7000E168084321690843E968044A11400843C2
:101A8000E86000E00126304670BD00003CC2FEFF69
:101A9000826A4B035B0B1A438262704708B50549A3
:101AA00049690143034A5161114649690140009166
:101AB00000BF08BD00100240F0B502460B460026EC
:101AC0006BE00124B44019682140002964D05868B3
:101AD000012802D05868022816D1986894680D46EB
:101AE0004D436F00ED19AC430D464D4345432C4328
:101AF000946000BFDC6818685568854307466743F3
:101B00003D43556000BF00BF1869D4680D464D4382
:101B10006F00ED19AC430D464D4345432C43D46053
:101B200000BF5868022829D1FF2911D85869146AC2
:101B30000D464D434D434D432F017D1BAC430D4698
:101B40004D434D434D4345432C43146200BF15E0C4
:101B50005F69080A40430C0A60430C0A60430401B1
:101B6000241A506AA0430C0A64430D0A6C430D0A00
:101B70006C437C432043506200BF00BF5868146828
:101B80000D464D436F00ED19AC430D464D434543A3
:101B90002C43146000BF00BF761C1868F04000287A
:101BA0008FD1F0BD8162704781627047816270475A
:101BB000816170478161704710B5426913460B40DF
:101BC0001B040C4694432343836110BD02484068C4
:101BD0000C2108407047000000100240F8B5044690
:101BE0000025002C30D100BF1848006B0321A14014
:101BF00008402106084300281BD0012804D00228F1
:101C00000CD0032814D103E000F02CFF05461AE0A5
:101C100000F020F8002800D00D4D14E000BF0B4864
:101C2000006A022108404008002800D08D030AE025
:101C300000BF00F017FF074600F0F0FE064600F078
:101C4000FFFE054600BF00BF2846F8BD0010024059
:101C500000127A00024800680221084040087047DC
:101C6000001002400149086070470000F8000020A1
:101C7000016880229143016070470168490849006A
:101C80000160704701680122114301607047C1681B
:101C900001221143C160704710B5024613681F4806
:101CA000824202D01E48824205D118467024A043C9
:101CB0004C6820430346194882420BD018488242A0
:101CC00008D01848824205D01748824202D01748EF
:101CD000824206D1184603242402A043CC68204344
:101CE000034613608868D06200BF0888906200BF16
:101CF0000A48824205D00C48824202D00B488242F8
:101D000003D10869106300BF00BF00BF5069012400
:101D10002043506100BF002010BD0000002C014096
:101D20000004004000200040004401400048014001
:101D3000F0B585B004460D460120049000200390C4
:101D4000204600F05DF8002850D1E9686868084333
:101D500029690843A96908432168264A11400843B4
:101D60002060A86861680322120391430143616007
:101D700000BF6869A168121191430143A16000BFCF
:101D80001D48844203D10020FFF728FF03900398E9
:101D900000282BD02868002828D000200490039F1A
:101DA000A86902902E680121C9030298884214D1C3
:101DB0007900720888183146FEF728FE80B201903B
:101DC0000E4901980840009001980007400F0099C3
:101DD000084300900098E06006E07108C819314699
:101DE000FEF714FE80B2E06000BF00BF049805B0AB
:101DF000F0BD0000F369FFFF00380140F0FF000074
:101E000001460868C007C00F01225040504070478B
:101E100000B591B000200D900E900F9010901421FD
:101E200008A8FEF7F1FD182102A8FEF7EDFD01203C
:101E30004002364989690143344A916111468969F2
:101E40000140019100BF00BF0002114649690143F2
:101E50005161114649690140019100BF00BF012055
:101E60000290032003900020069002A90920C006DA
:101E7000FFF722FE0220029003200390002006902C
:101E800002A90920C006FFF717FE042002900320D4
:101E900003900020069002A90920C006FFF70CFE5F
:101EA00001211B48FFF7F4FD1A491948FFF7F0FD1F
:101EB00019491748FFF7ECFD00200D900E900F9088
:101EC00010900DA91248FFF79DFD00200890099081
:101ED000012040030A9001200B9000200C9008A9DB
:101EE0000B48FFF7B7FD00200949C9680422914358
:101EF0000143074AD16000BF022011464969C90861
:101F0000C9000143516100BF11B000BD0010024083
:101F100000240140020000040400000800B587B05E
:101F2000182101A8FEF770FD01208005FFF7B6FD1E
:101F300001204004FFF7B2FD01208004FFF7AEFD51
:101F400002214548FFF730FE01214348FFF72CFEF0
:101F500008210920C006FFF727FE10210920C0062E
:101F6000FFF722FE20210920C006FFF71DFE4021B9
:101F70000920C006FFF718FE80210920C006FFF7E0
:101F800013FE022001900120029003200390002004
:101F90000490059001A93048FFF78EFD01200190C3
:101FA00002900320039000200490059001A92A4884
:101FB000FFF782FD0820019001200290032003908A
:101FC00000200490059001A90920C006FFF774FDC8
:101FD0001020019001200290032003900020049023
:101FE000059001A90920C006FFF766FD2020019099
:101FF000012002900320039000200490059001A985
:102000000920C006FFF758FD4020019001200290F2
:102010000320039000200490059001A90920C00628
:10202000FFF74AFD802001900120029003200390D9
:1020300000200490059001A90920C006FFF73CFD8F
:102040000220019000200290059001A90348FFF7AB
:1020500033FD07B000BD0000001400480004004834
:1020600000BF10481049086000BF00BF0F4808605B
:1020700000BF0320486000BF0D48886000BF00BF5C
:1020800000BF0948C0684007400F002801D1012067
:1020900000E000200128F3D100BF06480249086093
:1020A00000BF7047CCCC0000003000405555000008
:1020B000FF0F0000AAAA000000B587B0142102A8F3
:1020C000FEF7A2FCFF2001301249C9690143114A01
:1020D000D1611146C9690140019100BF00BF0021D3
:1020E000132001F087F9132001F078F9FF20E13087
:1020F0006946088100200390642004900020059028
:1021000002A90548FFF7C8FD0348FFF7B1FD07B076
:1021100000BD0000001002400020004000B587B064
:10212000142102A8FEF770FC0120400412498969BD
:102130000143114A9161114689690140019100BF33
:1021400000BF0121152001F055F9152001F046F9D5
:102150000A4869460881002003907D20C000049051
:1021600000200590069002A90548FFF795FD044858
:10217000FFF77EFD07B000BD00100240C05D00000B
:102180000044014010B50B480B4908602F204860FF
:102190000021094881607D21C900C16000210161E1
:1021A00041618161FFF73CFA002801D0FFF7D6F8C2
:1021B00010BD0000004801402403002000B587B096
:1021C000002003900490059006900190029016481C
:1021D0001649086016484860002114488160FF21B4
:1021E000F531C160002101618161FFF719FA002812
:1021F00001D0FFF7B3F801200003039003A90B48B7
:10220000FFF780FA002801D0FFF7A8F8002001901E
:10221000029001A90548FFF7C7F9002801D0FFF790
:102220009DF807B000BD000000040040DC02002063
:10223000C05D000000B58FB01C2108A8FEF7E4FBCC
:10224000182102A8FEF7E0FB0120800344498969B8
:102250000143434A9161114689690140019100BFE0
:1022600000BFC000114649690143516111464969E7
:102270000140019100BF00BF0012029002200390B4
:10228000032004900020059006900120079002A9E9
:102290000920C006FFF710FC0120800202900220F6
:1022A00003900320049000200590069001200790E1
:1022B00002A90920C006FFF7FFFB00211B2001F047
:1022C000D5F81B20002805DBC206D20E0121914063
:1022D000244A116000BF2448806808902248C068E2
:1022E0000990214800690A901F4840690B900C2012
:1022F0000C9000200D900E9008A91C48FFF718FDC7
:1023000000BF00BF00BF00BFEFF3108108460121EE
:1023100081F3108800BF1549896801229202914318
:10232000124A9160014681F3108800BF00BF00BFD0
:1023300000BF10464068D1148843114648600846E3
:102340008068082188431146886000BF00BF0846A6
:102350000068012108431146086000BF0FB000BDAE
:102360000010024000E100E01402002000380140AB
:1023700010B57B48006840084000794908607948FA
:102380000078022821D178480179FF380138FEF71A
:1023900071FE7549887108468079002815D0084675
:1023A0008079801EC1B27148FEF748FF04466E482E
:1023B0008079801E6D4A14542004010E6A48807989
:1023C000401E11540021684841716848FEF79EFE86
:1023D00000282BD00020664908800220614908703F
:1023E00000BF64480068012108436249086000BFDB
:1023F0005E48FEF7DBFC5C49887108468079801EE8
:10240000C1B25A48FEF71AFF044657488079801E29
:10241000564A14542004010E53488079401E11542A
:1024200000215148417102204E4908704F48007800
:10243000002801D0012000E000204B49097905293E
:1024400001DD012100E000210840484909784A4A9D
:102450001278914201D1012100E00021434A127813
:10246000FF2A01D1012200E0002211430840002888
:1024700067D03D480079801EC1B23C48FEF7DEFEC1
:10248000044639480079801E3849085CE1B2884228
:1024900001D1012000E0002033490979491E334A67
:1024A000515C220A914201D1012100E00021084043
:1024B000002843D02D484078042817D006DC012896
:1024C0000BD002280CD003281CD10CE0052810D01A
:1024D000062811D0102815D111E000F04FF815E0B2
:1024E00000F05EF812E000F0ABF80FE000F0A8F8A2
:1024F0000CE000F0FFF809E000F00CF906E000F055
:1025000037F903E0012000F095F900BF00BF16483D
:102510008079801EC1B21548FEF790FE044612482D
:102520008079801E114A14542004010E0E488079CF
:10253000401E115400210C48417102E000210A485C
:10254000417100210848C1710171054800680121ED
:1025500008430349086000210348016010BD0000E2
:1025600000200040C3000020FC010020FC000020EF
:10257000E400002000440140BC00002070B50025AC
:1025800000260648807800020449C97843181809D3
:1025900000011C1A022000F04DF970BDFC00002063
:1025A000FCB5002400272348807800022149C9781F
:1025B000431818090001181A0190002B03D00220BB
:1025C00000F038F9FCBD1B4800790002194949792F
:1025D00045185819012803D9022000F02BF9F1E71A
:1025E00003272809461CE818012801D8012000E02B
:1025F0000020012B01D8012100E000210840002823
:1026000015D000240BE060000B49085A01990841DD
:1026100000903919074A009850547F1C641CB4423A
:10262000F1D304498C70601DC1B20448817100BFB0
:10263000C8E70000FC000020BE000020FC010020D4
:10264000F8B5002500262848807800022649C97878
:102650004718062F03D3022000F0ECF8F8BD2248FB
:1026600000790002204949794418E019062803D965
:10267000022000F0DFF8F1E703263819062801D818
:10268000012000E00020062C01D8012100E00021FB
:102690000840002825D0002518E0E819400013491B
:1026A0000B5A002B0ADA0093009B18128021084372
:1026B0000D498855721C009B8B5405E00A49721C19
:1026C0008B541804000E8855B61C6D1CA542E4D32B
:1026D0006806000E044988706800401DC1B20448B5
:1026E000817100BFBAE70000FC0000200802002052
:1026F000FC01002010B50648807800020449C97822
:102700004318180900011C1A022000F093F810BDAC
:10271000FC00002070B500251248807800021149A5
:10272000C9784418062C03D3022000F083F870BD4A
:102730000C48007900020B4949794518A9B2E0B26A
:10274000094AFEF723FC002803D0032000F072F8AA
:10275000EDE76100044A555208210448817100BF29
:10276000E5E70000FC00002008020020FC0100203A
:10277000F8B50024002000902B48807800022A49F8
:10278000C9784518062D03D3022000F053F8F8BD90
:10279000254800790002244949794618701906280D
:1027A00003D9022000F046F8F1E7032000907019E9
:1027B000062801D8012000E00020062D01D80121C3
:1027C00000E00021084000282BD0002424E0620013
:1027D000D21D154B9A5C130262000832124FBA5C8C
:1027E0009A1891B22A19D0B2104AFEF7CFFB0028EE
:1027F00003D0032000F01EF8C9E76000C01D0A499D
:10280000085C010260000830074A105C08182919AA
:102810004900064A5052641CB442D8D308210448E7
:10282000817100BFB3E70000FC0000200802002017
:10283000FC0100200649497880221143044A517066
:10284000114688700522FF3101318A7170470000FE
:10285000FC0000201A488079002801DD012000E0FA
:10286000002017494979002901D1012100E0002108
:102870000840002823D01348C06840084000114990
:10288000C86011480068202188430F490860084645
:102890000068402108430C49086080200921C906CE
:1028A000886100BF064841794079401CC2B20448A3
:1028B0004271FF380138405C03492031088170477C
:1028C000FC010020002000400038014010B5044801
:1028D000C079012803D1FFF74BFDFFF7BBFF10BD07
:1028E000FC010020124802680068401C1049086082
:1028F0000846007A824201D9012000E000200C49FC
:102900000979012901DD012100E0002108400028AA
:1029100003D001210648C17102E000210448C171C1
:1029200004480069400840000249086170470000FF
:10293000FC010020002000400021154801600079C2
:10294000FE2801DD124801711248C069C007C00F9E
:102950001049C861002806D00846006A01210843D2
:102960000C4908620DE00B4820308088C1B208484D
:1029700002790079401CC3B205480371FF38013861
:1029800081540448806908210843024988617047DE
:10299000FC010020003801401B48417980798142C8
:1029A0000CDA194841794079401CC2B2164842718C
:1029B000FF380138405C154908811CE000211248AD
:1029C000817180200921C906886200BF0F48203824
:1029D0000068202108430D49203908600846006836
:1029E000402188430949203908600948C06801210D
:1029F00008430749C86005482038006A4021084359
:102A00000249203908627047FC010020203801404B
:102A10000020004000BFFEE770470000014600BFF5
:102A200005484068F022104010400009034A125C3B
:102A30000846D0407047000000100240A43A000849
:102A4000014600BF05484068072212021040000AF4
:102A5000034A125C0846D040704700000010024054
:102A6000B43A000810B50024FFF7B0F8002804D0ED
:102A7000042804D0082808D103E0064C07E0054CE0
:102A800005E000F009F8044601E0024C00BF00BF79
:102A9000204610BD00127A0070B50024002500BF4A
:102AA000134840680121090408400546002D03D061
:102AB0000846281A04D101E00E4C03E00E4C01E058
:102AC0000C4C00BF00BF00BF0948C06A0007000FE0
:102AD000461C31462046FDF799FF054949680F22FB
:102AE000920411401140890C891C484370BD0000BC
:102AF0000010024000093D0000127A0070B5014646
:102B0000074A0423002007E016781C465D1CEBB240
:102B10000E55521C441CE0B26228F5D3184670BD15
:102B2000140200200148008B80B27047140200207C
:102B300030B5C7B005462C4620682E90241D20686D
:102B40002F90241D20683090241D20683190241D72
:102B500020683290241D20683390241D2068349012
:102B6000241D20683590241D20683690241D20687F
:102B70003790241D20683890241D20683990241D2A
:102B800020683A90241D20683B90241D20683C90CA
:102B9000241D20683D90241D20683E90241D20683F
:102BA0003F90241D20684090241D20684190241DE2
:102BB00020684290241D20684390241D2068449082
:102BC000241D20684590241D206846902E9815905D
:102BD0002F98169030981790319818903298199035
:102BE00033981A9034981B9035981C9036981D9005
:102BF00037981E9038981F90399820903A982190D5
:102C00003B9822903C9823903D9824903E982590A4
:102C10003F98269040982790419828904298299074
:102C200043982A9044982B9045982C90469854228B
:102C300019A92D906846FDF791FE15A80FC8FEF75B
:102C4000C1F9002802D0002047B030BD2E98159061
:102C50002F981690309817903198189032981990B4
:102C600033981A9034981B9035981C9036981D9084
:102C700037981E9038981F90399820903A98219054
:102C80003B9822903C9823903D9824903E98259024
:102C90003F982690409827904198289042982990F4
:102CA00043982A9044982B9045982C90469854220B
:102CB00019A92D906846FDF751FE15A80FC8FEF71B
:102CC000DFFA4699884201D10120BDE70020BBE729
:102CD0007047000010B5044621460348FDF796FEF4
:102CE000C1B20248017210BDA0860100FC010020A3
:102CF00000B595B0002022490860012048604B20B3
:102D0000C001886001200003C86000200861012024
:102D100080024861002088617F20C005C8610020D2
:102D200008627F20C0054862002088627F20C005BD
:102D3000C862002008630A204863022088630520D7
:102D4000C8634B2008640120486450208864A02098
:102D5000C8640520086532204865642088654B20DA
:102D60000001C865542210316846FDF7F7FD04489C
:102D70000FC8FEF785FA0249086615B000BD0000CD
:102D80001402002010B5FEF773FB10BD10B5012032
:102D90005F490968814301435D4A116000BF00BF7C
:102DA00000BF5B480068C007C00F0028F8D000BF14
:102DB00058480068012108435649086000BF00BF19
:102DC00000BF544800680221084040080028F7D09E
:102DD000102050490968F8229143C20011434D4A1E
:102DE000116000BF00BF1046406B0121084311462F
:102DF000486300BF00BF00BF4648406B0221084047
:102E000040080028F7D010204249496BF82291432E
:102E1000C20011433F4A516300BF00BF1046406AE1
:102E2000012108431146486200BF00BF00BF394876
:102E3000406A0221084040080028F7D00020052100
:102E4000C904344A52683D231B049A4301231B04DE
:102E500003400B431A432F4B5A601A46D26A120999
:102E600012010243DA6200BF00BF18460068012168
:102E7000090608431946086000BF00BF00BF254887
:102E80000068012149060840400E0028F6D00020C5
:102E900020494968F022914301431E4A516000BF16
:102EA00000BF114649680722120291430143194AA3
:102EB000516000BF0220114649688908890001431A
:102EC000516000BF00BF00BF124840680C2108409D
:102ED0000828F8D11048FEF7C5FE0320FEF7E4FAF3
:102EE000002801D0FEF73AFA00BF0A48406B0421DF
:102EF00088430849486300BF0020096B002213463D
:102F000003229A4091430143024A116300BF10BD5E
:102F10000020024000100240006CDC0270470000FC
:102F200010B5FFF7DFFC0348006940084000014985
:102F3000086110BD0020004010B510480088401CFA
:102F40000E49088002210E48FEF736FE0B48008825
:102F50000A280CDB00200949088001200949087073
:102F60000948FEF78AFE02210548FEF723FE0648BF
:102F70000069400840000449086110BDE4000020D9
:102F800000140048C30000200044014010B52F4841
:102F90000068401C2D4908602D480078002812D098
:102FA0002C48C06B0968884246D810210920C00609
:102FB000FEF7FCFD40210920C006FEF7F7FD0020CA
:102FC0002349087038E02448007800281DD02148A3
:102FD000406C2049C96B40181C49096888422BD8AD
:102FE00000F05CF91D480078012802D0022806D1C3
:102FF00002E000F075F903E000F066F900E000BFC0
:1030000000BF00201449087016E01248406C1149B6
:10301000C96B40180F49096C40180C49096888426F
:103020000AD800200949086000F038F900200C494E
:1030300008700C48FEF721FE0A480069400840006D
:10304000084908610848FEF7EAFB10BDE8000020C7
:10305000D000002014020020D1000020C800002071
:10306000D2000020004801402403002010B50A4887
:103070000078002807D10948FEF7FFFD0221084823
:10308000FEF798FD03E002210548FEF795FD05488F
:10309000FEF7C5FB10BD0000D80000200004004072
:1030A00000140048DC02002010B502681D4B984255
:1030B00002D01D4B984205D170241346A3431A46F3
:1030C0004B681A43174B98420BD0174B984208D0C5
:1030D000164B984205D0164B984202D0154B984299
:1030E00006D1032424021346A3431A46CB681A438D
:1030F00080241346A3434C6923431A4602608B681D
:10310000C3620B688362074B984205D0084B984214
:1031100002D0084B984201D10B690363012343613C
:1031200010BD0000002C01400004004000200040C1
:10313000004401400048014070B50C468168FF26FC
:1031400036020D46B54329461D0215432543294342
:10315000816070BD10B50A46816870240B46A34398
:103160001946072313431943816010BD70B50B4600
:103170001446026A056A6D086D0005628169F026D1
:103180000D46B5432946250129430A261546B54370
:103190002A4615461D432A468161026270BD70B5FC
:1031A0000B461446056A1026B54305628169026A1A
:1031B0000F2636030D46B543294625032943A0268D
:1031C0001546B5432A461D012A438161026270BD3E
:1031D00010B500BF0948C0692021084040090028F7
:1031E00009D000BF0548006808404009002802D007
:1031F000FFF7A2FB01E0FFF7CFFB10BD0038014055
:1032000010B51F480078002823D003201D494880AE
:1032100000BF1D480068C007C00F0121484048405A
:10322000002802D11848FEF72DFD1848806C184977
:103230000988884222D81548C06C164909888842F6
:103240001CD800200E490870134800780D494880AA
:1032500014E00E48806C0D49096D401A0C4909882C
:10326000884208D80948C06C0849096D401A0949C4
:103270000988884202D901200149087010BD000068
:10328000D8000020080200200004004014020020A2
:10329000CA000020CC000020C900002010B5102179
:1032A0000920C006FEF77EFC40210920C006FEF77B
:1032B00079FC08210920C006FEF774FC20210920B2
:1032C000C006FEF76FFC10BD10B540210920C006F6
:1032D000FEF76EFC08210920C006FEF769FC10BD50
:1032E00010B510210920C006FEF762FC202109203C
:1032F000C006FEF75DFC10BD0FB4F0B505462F46C5
:1033000006AEFEF789F8002404E002CE3819FEF775
:1033100057F8241D642CF8D3FEF748F8F0BC08BC1D
:1033200004B0184730B595B005462C4620682A49A8
:103330000860241D20684860241D20688860241DC2
:103340002068C860241D20680861241D2068486129
:10335000241D20688861241D2068C861241D206800
:103360000862241D20684862241D20688862241D8C
:103370002068C862241D20680863241D20684863F3
:10338000241D20688863241D2068C863241D2068CC
:103390000864241D20684864241D20688864241D56
:1033A0002068C864241D20680865241D20684865BD
:1033B000241D20688865241D2068C865241D5422AA
:1033C00010316846FDF7CAFA03480FC8FDF758FFE9
:1033D0000149086615B030BD14020020002805DB45
:1033E000C206D20E01219140014A116070470000CF
:1033F00000E100E010B5002819DB1A4A03231B0284
:10340000D21883089B00D2588307DC0EFF23A34009
:103410009A438B071B0E8407E40EA3401A43114BFB
:10342000032424021B198408A4001A5118E00E4A30
:1034300003071B0F083B9B089B00D2588307DC0E39
:10344000FF23A3409A438B071B0E8407E40EA3407F
:103450001A43054B0407240F083CA408A4001A5182
:1034600010BD000000E100E01CED00E010B50028F8
:1034700019DB1A4A03231B02D21883089B00D25877
:103480008307DC0EFF23A3409A438B071B0E8407A0
:10349000E40EA3401A43114B032424021B19840891
:1034A000A4001A5118E00E4A03071B0F083B9B08A3
:1034B0009B00D2588307DC0EFF23A3409A438B075F
:1034C0001B0E8407E40EA3401A43054B0407240F88
:1034D000083CA408A4001A5110BD000000E100E05F
:1034E0001CED00E010B5002819DB1A4A03231B026B
:1034F000D21883089B00D2588307DC0EFF23A34019
:103500009A438B071B0E8407E40EA3401A43114B0A
:10351000032424021B198408A4001A5118E00E4A3F
:1035200003071B0F083B9B089B00D2588307DC0E48
:10353000FF23A3409A438B071B0E8407E40EA3408E
:103540001A43054B0407240F083CA408A4001A5191
:1035500010BD000000E100E01CED00E0FEB500241D
:1035600001203D4988623D48FDF7D6FB3B48FDF709
:10357000BBFB04462046FDF73DFB01903848C1697E
:10358000384800F0ADF90090019900F0A9F907461C
:10359000002100F05FF906463148016A304600F02C
:1035A00059F90546FDF7E2FA2F49088002202A4919
:1035B00088622A48FDF7B0FB2848FDF795FB0446D2
:1035C0002046FDF717FB01902548416A274800F087
:1035D00087F90090019900F083F90746244900F02B
:1035E00039F906461E48816A304600F033F905462F
:1035F000FDF7BCFA1F490880042017498862174864
:10360000FDF78AFB1548FDF76FFB04462046FDF7E2
:10361000F1FA01901248C16A174800F061F9009070
:10362000019900F05DF90746144900F013F90646C8
:103630000B48016B304600F00DF90546FDF796FA90
:103640000F49088000BF04200349086000BF00BF85
:103650000820086000BFFEBD002401407802002061
:10366000140200201CEB223ECE00002023322C3D11
:103670001F853341CA0000208E23963D08ACB04020
:10368000CC0000200748C06820210840002806D050
:103690000448C06808430349C860012070470020FF
:1036A000FCE70000002002400348C068C007C00FCC
:1036B00001214840704700000020024096B0FDF70D
:1036C000E3FEFFF763FB542255496846FDF746F9D0
:1036D000534810380FC8FDF72BFD514810380068CB
:1036E000002808D001204F4908704F4948804C48B5
:1036F0001038008808804A4910398868FFF7EAFACC
:103700004748103800794949087000BF4848806828
:1037100048490840090740184549886000BF00BF74
:1037200000BF43488068C00F0028F9D1FEF7F6FBC0
:10373000FEF76EFBFEF794FCFEF77CFDFEF7BCFC8B
:10374000FEF7ECFCFEF71EFDFEF738FD00BF00BFE4
:1037500000BF00BFEFF310810846012181F31088FC
:1037600000BF3549096820221143334A11600146E0
:1037700081F3108800BF00BF00BF3048FEF782FA17
:103780002748103800792949087000BF2848806808
:1037900028490840401C2649886000BF2748FEF79A
:1037A00076FA2748FEF773FA2648FEF770FA26489D
:1037B000FEF76DFAFDF7CAFB19481038008B1A495D
:1037C00008813620488102212048FEF7F1F91A4885
:1037D0000068402188431849086008460068802135
:1037E00088431549086019E0FDF778FBFDF738FAC2
:1037F000FDF722FBFEF7FEF8FFF768F8FFF7AEFED5
:10380000FDF780FDFDF7CAFCFFF7FAFCFDF710FE9F
:103810000F480078002801D000BFFEE7E4E7000071
:1038200024020020C800002008020020BC00002064
:1038300000240140E8FFFF7F0038014000200040E5
:1038400000440140000400400048014000140048CA
:10385000C200002070B501250400ED074C4020D4C3
:10386000441A01D2001B0919C60D4B00F2B2FF2AFF
:1038700029D01B0E2CD000020C02D31A2C43DC40A2
:103880002843051910D2280A02D3401C6D0611D016
:10389000761EF6058019FF2A00DA70BDC00DC0053E
:1038A00070BD694000F07AF801200543C541521C03
:1038B000761CE8E764089C40C90161408900E7D1B3
:1038C0000124A043E4E71B0E440200D0034870BD6E
:1038D000002AFCD1C00FC00770BD00BF0000C07F30
:1038E00070B5420064414B005C41120E39D01B0E92
:1038F00038D0FF2A3CD0FF2B3AD040024902400A80
:10390000490A060045184E43000A090AD2184843DE
:10391000ED017F3A0104731A4019190C4318990FED
:1039200004D001215B0849075B1A521CD80904D353
:10393000401CF50301D19D0607D0FF2A08D2D5050A
:1039400006D0E4072043401970BD0125A843F4E7E1
:10395000002A01DCE00770BD2402FF202043C005DF
:1039600070BD1B0EFF2A03D0FF2B01D0E00770BDF6
:10397000FF2645003606B54206D84D00B54203D8AD
:10398000D218FF2A00D0E7E7004870BD0000C07FD2
:1039900070B501250400ED074C4022D4441A02D230
:1039A0006C40001B0919C60D4B00F2B2FF2A4BD028
:1039B0001B0E50D000020C02D31A2C43DC40A8434B
:1039C000051B05D5AD0019D36D08761E521E37D0E4
:1039D000F605280A01D2801970BD70416D0603D02A
:1039E00070BD6940FFF73CFF9C40090261404900FF
:1039F00001D0401E70BD0124A04370BD6D081DD0D4
:103A000001202B0C01D12D0410302B0E01D12D02E1
:103A100008302B0F01D12D01001DAB0F01D1AD00DE
:103A2000801CEB0F01D16D00401C6D00361A121A7C
:103A3000680AF5054019012A02DB70BD002070BD3F
:103A4000C036300AC00770BD1B0E440201D1FF2BE7
:103A500000D1024870BD002AF0D070BD0000C07FC8
:103A6000081C304458000000000404040000080052
:103A70000000080000080000000800020406080A10
:103A80000C0001020304050642494B454D495F4CB9
:103A90004C5F53544152545F50524F4752414D4D29
:103AA000494E47000000000000000000010203042E
:103AB000060708090000000001020304DC3A0008C0
:103AC000BC00002040000000FC0800081C3B00086F
:103AD000FC000020D40800001809000801000000C4
:103AE00000000000000000000000000000000000D6
:103AF00000000000000000000101010000000000C3
:103B000000000000000000000000000000000000B5
:0C3B1000040000000100000000127A0018
:04000005080008B92E
:00000001FF
